:020000040000fa
:080000000001040000000000f3
:020000040000fa
:0400080008020000ea
:020000040000fa
:04000c004a020000a4
:020000040000fa
:040010008a02000060
:020000040000fa
:0400140028020000be
:020000040000fa
:040018006a02000078
:020000040000fa
:04001c001a050000c1
:020000040000fa
:04002000aa02000030
:020000040000fa
:040024001a050000b9
:020000040000fa
:040028001a050000b5
:020000040000fa
:04002c001a050000b1
:020000040000fa
:040030001a050000ad
:020000040000fa
:040034001a050000a9
:020000040000fa
:040038001a050000a5
:020000040000fa
:04003c001a050000a1
:020000040000fa
:040040001a0500009d
:020000040000fa
:040044001a05000099
:020000040000fa
:040048001a05000095
:020000040000fa
:04004c001a05000091
:020000040000fa
:040050001a0500008d
:020000040000fa
:040054001a05000089
:020000040000fa
:040058001a05000085
:020000040000fa
:04005c001a05000081
:020000040000fa
:040060001a0500007d
:020000040000fa
:040064001a05000079
:020000040000fa
:040068001a05000075
:020000040000fa
:04006c00ca020000c4
:020000040000fa
:040070001a0500006d
:020000040000fa
:040074001a05000069
:020000040000fa
:040078001a05000065
:020000040000fa
:04007c001a05000061
:020000040000fa
:040080001a0500005d
:020000040000fa
:040084001a05000059
:020000040000fa
:040088001a05000055
:020000040000fa
:04008c001a05000051
:020000040000fa
:040090001a0500004d
:020000040000fa
:040094001a05000049
:020000040000fa
:040098001a05000045
:020000040000fa
:04009c001a05000041
:020000040000fa
:0400a0001a0500003d
:020000040000fa
:0400a4001a05000039
:020000040000fa
:0400a8001a05000035
:020000040000fa
:0400ac001a05000031
:020000040000fa
:0400b0001a0500002d
:020000040000fa
:0400b4001a05000029
:020000040000fa
:0400b8001a05000025
:020000040000fa
:0400bc001a05000021
:020000040000fa
:0400c0001a0500001d
:020000040000fa
:0400c4001a05000019
:020000040000fa
:0400c8001a05000015
:020000040000fa
:0400cc001a05000011
:020000040000fa
:0400d0001a0500000d
:020000040000fa
:0400d4001a05000009
:020000040000fa
:0400d8001a05000005
:020000040000fa
:0400dc001a05000001
:020000040000fa
:0400e0001a050000fd
:020000040000fa
:0400e4001a050000f9
:020000040000fa
:0400e8001a050000f5
:020000040000fa
:0400ec001a050000f1
:020000040000fa
:0400f0001a050000ed
:020000040000fa
:0400f4001a050000e9
:020000040000fa
:0400f8001a050000e5
:020000040000fa
:0400fc001a050000e1
:020000040000fa
:040100001a050000dc
:020000040000fa
:040104001a050000d8
:020000040000fa
:040108001a050000d4
:020000040000fa
:04010c001a050000d0
:020000040000fa
:040110001a050000cc
:020000040000fa
:040114001a050000c8
:020000040000fa
:040118001a050000c4
:020000040000fa
:04011c001a050000c0
:020000040000fa
:040120001a050000bc
:020000040000fa
:040124001a050000b8
:020000040000fa
:040128001a050000b4
:020000040000fa
:04012c001a050000b0
:020000040000fa
:040130001a050000ac
:020000040000fa
:040134001a050000a8
:020000040000fa
:040138001a050000a4
:020000040000fa
:04013c001a050000a0
:020000040000fa
:040140001a0500009c
:020000040000fa
:040144001a05000098
:020000040000fa
:040148001a05000094
:020000040000fa
:04014c001a05000090
:020000040000fa
:040150001a0500008c
:020000040000fa
:040154001a05000088
:020000040000fa
:040158001a05000084
:020000040000fa
:04015c001a05000080
:020000040000fa
:040160001a0500007c
:020000040000fa
:040164001a05000078
:020000040000fa
:040168001a05000074
:020000040000fa
:04016c001a05000070
:020000040000fa
:040170001a0500006c
:020000040000fa
:040174001a05000068
:020000040000fa
:040178001a05000064
:020000040000fa
:04017c001a05000060
:020000040000fa
:040180001a0500005c
:020000040000fa
:040184001a05000058
:020000040000fa
:040188001a05000054
:020000040000fa
:04018c001a05000050
:020000040000fa
:040190001a0500004c
:020000040000fa
:040194001a05000048
:020000040000fa
:040198001a05000044
:020000040000fa
:04019c001a05000040
:020000040000fa
:0401a0001a0500003c
:020000040000fa
:0401a4001a05000038
:020000040000fa
:0401a8001a05000034
:020000040000fa
:0401ac001a05000030
:020000040000fa
:0401b0001a0500002c
:020000040000fa
:0401b4001a05000028
:020000040000fa
:0401b8001a05000024
:020000040000fa
:0401bc001a05000020
:020000040000fa
:0401c0001a0500001c
:020000040000fa
:0401c4001a05000018
:020000040000fa
:0401c8001a05000014
:020000040000fa
:0401cc001a05000010
:020000040000fa
:0401d0001a0500000c
:020000040000fa
:0401d4001a05000008
:020000040000fa
:0401d8001a05000004
:020000040000fa
:0401dc001a05000000
:020000040000fa
:0401e0001a050000fc
:020000040000fa
:0401e4001a050000f8
:020000040000fa
:0401e8001a050000f4
:020000040000fa
:0401ec001a050000f0
:020000040000fa
:0401f0001a050000ec
:020000040000fa
:0401f4001a050000e8
:020000040000fa
:0401f8001a050000e4
:020000040000fa
:0401fc001a050000e0
:020000040000fa
:100200000fa220000e7f22000e01880000000000d7
:10021000000020000000e000020032000001200089
:100220002002880014000700260207000000e000fa
:1002300003003a00c0d9210001002000020037006d
:100240000000200001002000810f7000010032003a
:1002500014000700000020000000e000020032004f
:1002600000000200000000007e1e020000000000ee
:100270000040da000000fe004440a900200d2000ec
:100280000000e00003003200002020009001880000
:100290004440a800000006008a1f78008b1f7800e9
:1002a00000000600a1028800800478000000eb0036
:1002b0001f003700e284440054a0b4009905ba003e
:1002c000e284440054a0b4009906ba00e2844400d9
:1002d00054a0b4000006eb00476fde00fd07b2003b
:1002e000ae018800636ce10003003a00eaff0700fa
:1002f0000000eb000e003700606ce10008003a00df
:10030000004deb000a05e800020039003420ec0043
:100310000af0a0008b05e900f9ff3e000400370059
:100320006168e100010032000086eb000b0007006d
:1003300019c7ba001905ba000e04e00003003a001c
:100340000a00e000dbff3a0000000600fe07b200f2
:10035000ae0288008a047800f5ff37000cd0a300b5
:10036000e20f4d001c00390089027800354dba00bb
:100370000a05e800020039003420ec000af0a00071
:100380008b05e9000f003200254dba000a05e80090
:10039000020039003420ec000af0a0008b05e900cf
:1003a000080032000c00e0000600320015cdba0053
:1003b0000a05e800020039003420ec000af0a00031
:1003c0008b05e9008984e80054a0b4000b00e0002c
:1003d000e2ff3a00000006009902ba00055d7800cd
:1003e0008b05e900f7ff3200c82ade00055d7800c2
:1003f0008b05e900f3ff32000c00e000f1ff320052
:1004000019ddba00eeff3700000000000000000018
:100410003600f800809fbe00829fbe00849fbe0011
:10042000869fbe000000fa008020a9000000eb00bb
:100430006f0e07000080fa004f03be004f02be009f
:100440004f01be004f00be003600f900004006001c
:100450003600f800809fbe00829fbe00849fbe00d1
:10046000869fbe000000fa00660e07008040a900cb
:10047000100020005e0e07000080fa004f03be004f
:100480004f02be004f01be004f00be003600f90013
:10049000004006003600f800809fbe00829fbe002c
:1004a000849fbe00869fbe000000fa008060a90005
:1004b000200020004e0e07000080fa004f03be000f
:1004c0004f02be004f01be004f00be003600f900d3
:1004d000004006003600f800809fbe00829fbe00ec
:1004e000849fbe00869fbe000000fa008080a900a5
:1004f000300020003e0e07000080fa004f03be00cf
:100500004f02be004f01be004f00be003600f90092
:10051000004006003600f800809fbe00829fbe00ab
:10052000849fbe00869fbe000000fa008600a900de
:10053000700020002e0e07000080fa004f03be005e
:100540004f02be004f01be004f00be003600f90052
:10055000004006003600f800809fbe00829fbe006b
:10056000849fbe00869fbe000000fa0085e0a900bf
:10057000800020001e0e07000080fa004f03be001e
:100580004f02be004f01be004f00be003600f90012
:10059000004006003600f800809fbe00829fbe002b
:1005a000849fbe00869fbe000000fa008a20a9003a
:1005b000f124800000082000008060000000e000be
:1005c000080032009ee4a9002e28ef00a041800020
:1005d000200090008000eb00010878003428ef0034
:1005e0000d013700704180008000eb00b200200058
:1005f00003002000820f5000838f5800fc003e0053
:10060000006001000b00370039003700750037002b
:100610009c003700f3003700c8003700d9003700ce
:10062000f0003700db003700f100370034003700fe
:1006300050003700608220002000900062006000bf
:100640000000e000f3003a006082200010009000fb
:10065000a0418800608220001000900010407800c7
:1006600030e8b70060822000100090001000900079
:10067000904188006082200010009000e600400059
:10068000608220001100980060822000900090009d
:10069000008a2000808f500003003a006082200012
:1006a000a18920001100980060822000a000900025
:1006b0000100a100210098006082200090009000bd
:1006c0006082200010007800808f500004003a0003
:1006d00060822000a00090000110a000210098007e
:1006e0009a04a8002000200070418800ca0037004a
:1006f0009a24a8002000200070418800c60037001e
:10070000f124800000002800008060000000e0006c
:100710000800320060822000604090008040e800c5
:10072000608220006140980040002000470c0700d4
:10073000b9003700b04180008000d100f00f2000e8
:1007400000806000b0248800b0418000610060003b
:10075000004078000004e00003003200b0002000f8
:1007600070418800ac0037003000200070418800e4
:10077000a9003700f12480000000280000806000fc
:100780000000e0000800320060822000604090001d
:100790008040e80060822000614098004000200016
:1007a0002a0c07009c0037009a24a800b041800062
:1007b0004800de00e6006000000f2000010070002d
:1007c000b0418800b04180000000a000b041880026
:1007d00010c0b30038e8b700200020007041880046
:1007e0008d00370038c8bf00e14f50000a003200ca
:1007f0009041800010007800b04188009041800056
:1008000020009000d041880090418000204090005e
:100810003ce8b700010037003868ef00b1418000c4
:10082000f00f2000808f500009003600b04180009a
:100830004800de00e6006000000f200001007000ac
:10084000b0248800a00020007041880072003700aa
:10085000b0418000b0248800b04180006100600099
:10086000004078000004e000030032005000200047
:100870007041880068003700300020007041880017
:1008800065003700f124800000002800008060002f
:100890000000e0000900320060822000604090000b
:1008a0008040e80060822000614098009fe4a90039
:1008b00050002000e50b0700570037003cc8bf0080
:1008c0008080fb008100e900cf08de0081407800d5
:1008d0000040e9003ce8b7000104e00010003200ed
:1008e00090418000660040009041880030c8bf0001
:1008f0000040e90030e8b70030c8bf000004e00065
:1009000003003a0020002000d00b0700420037000f
:100910009a24a80020002000704188003e00370083
:10092000d0418000904078008180fb00b124880095
:100930000000e800d041880037003700f124800033
:1009400000002800008060000000e0000900320084
:1009500060822000604090008040e80060822000bb
:100960006140980040002000b80b07009fe4a900f8
:10097000290037009a64a800800020007041880098
:100980002500370080002000704188009a64a8008c
:1009900021003700d0418000a124800081407800f0
:1009a000014878000000e800d04188003cc8bf0042
:1009b0000040e9003ce8b7003cc8bf000004e0008c
:1009c000040032009aa4a900600020007041880051
:1009d000020037009aa4a8008b0b07009a84a80095
:1009e0000d00370020002000980b07000a00370098
:1009f00060822000604090008040e800608220001b
:100a00006140980060002000900b0700000000008b
:100a100001003700000000000080fa004f03be0014
:100a20004f02be004f01be004f00be003600f9006d
:100a3000004006000040da000000fe00889fbe0073
:100a400080047800104680000000e00005003a00b5
:100a50000000eb000e0007000084eb000000e00047
:100a600008003500184680000900e000050032004b
:100a700009004400060007000000e00001003d00fe
:100a80000084eb00080078004f04be000000060060
:100a9000800078000100e00003003a000000200020
:100aa00010468800000005000080eb0002002000d6
:100ab000828f500002003e00114688000000eb00cb
:100ac0000000060000000500f54580000001eb0075
:100ad0000500e00031003200050178008001eb00e4
:100ae000030278008300780002003700820178005a
:100af0000601780012037800800f530009003a00c5
:100b00000300e00003003200120090009001980002
:100b10000200370012009000f04588000281e800d2
:100b20001e003700800f5300060036000100e00071
:100b300002003200910f1300020036000302780019
:100b400082007800120390000600e000e7ff3a0000
:100b50000001eb000100e0001000320011019000e4
:100b600011031000e40f53000600360081017800e5
:100b700080197800008041000688e9001200980082
:100b800000017800818f520002003a00f24588008f
:100b900001003700120298000181e800020078008d
:100ba000000006000000e000180032000081e900ab
:100bb000f14580000100e00012003200920178004f
:100bc00003024000848f500006003a00110290009a
:100bd00004087800918141000389e800f24588000b
:100be00000000600110278008482e800858240003f
:100bf000850f510003003a00848141008388e8009a
:100c00000000060001087800f24588000000060098
:100c10000200fa00889fbe000000e00001003a00d8
:100c2000100020000004e8000800a100e04580005a
:100c30000000e8000000a100e0458800205d2000e1
:100c40000000e0000f003200e10f54000600360003
:100c5000e20f440005003a00c00020000046880072
:100c60000000eb002a003700280020000800780070
:100c700095ff0700290020000000e00024003a0052
:100c8000010037008004eb00e0458000d145800082
:100c900000805000800f540013003600088044008c
:100ca000d0bf9f0066805700870007008000780053
:100cb0000000eb000100e000150032000100e80038
:100cc0000000a100d1458000810f500001003200da
:100cd000e0458800dfb89700010040000000e80010
:100ce0000000a100d0458800e14580000900e00037
:100cf0000300320001007800081878000100370076
:100d0000010078000884440088804000e1458800a4
:100d10004f04be000080fa00000006008001780049
:100d200002003700b15978000201e9000200e0003a
:100d3000fcff3a0000000600889fbe008a9fbe00ac
:100d4000800478000200e0005b003200014078007f
:100d5000814c780082814400f1f99f00e20f51003c
:100d60005500360091449800a1449800e1f99f0095
:100d7000d1f99f00e60f51004f003600b1449800b2
:100d8000c1f99f00e80f51004b0036000905ea0049
:100d9000630565000a8444000a055100c1ff2f0065
:100da000010565000080fb008000eb0012102000b0
:100db000131020004e000700008cbe000a01440002
:100dc00060b99f0071b99f00e80f55003a003600e6
:100dd00020049800310498004004980051049800c1
:100de00020b99f0031b99f0040b99f0051b99f00c1
:100df000f80f550030003600600498007104980028
:100e0000000c9800110c9800200c9800310c9800f0
:100e1000400c9800510c980020b19f0031b19f0008
:100e200040b19f0051b19f0060b19f0071b19f0020
:100e300000b99f0011b99f0064016400780141006e
:100e400002044400020555006011b8000203be0010
:100e50000002be000403be006022b8000000720061
:100e600081807200020173008381730010003700db
:100e7000009cbe000294be004004980051049800fb
:100e80006204980073049800000c9800110c9800fc
:100e9000220c9800330c9800400c9800510c9800dc
:100ea000620c9800730c98000a02b1000802b000ae
:100eb000ff0f5500eeff3e00090078004f05be0011
:100ec0004f04be0000000600900078000000eb0018
:100ed0000100e0000500350001007800d7fe0700a2
:100ee000e10f400001003a000000eb0000000600a6
:100ef000020ab900001bb9000200b80081004200dc
:080f000081004300000006001f
:020000040000fa
:100f080012010000000200000000000000080000bc
:100f1800d80400005900000002000000010200008f
:100f28000001000009020000650000000201000045
:100f380000c00000320900000400000000000000aa
:100f48000101000000000000092400000100000069
:100f5800010900000001000001090000040100006f
:100f68000002000001030000000000000724000048
:100f780001000000014100000006000024020000fa
:100f88000101000000060000240200000202000027
:100f98000009000024030000010300000102000012
:100fa8000100000009240000030200000401000001
:100fb80001010000000900000501000002400000d6
:100fc80000000000000000000525000001010000ed
:100fd8000109000005810000024000000000000037
:100fe80000000000052500000101000003000000ca
:100ff8000403000009040000340300004d00000051
:101008006900000063000000720000006f0000002b
:101018006300000068000000690000007000000024
:10102800200000005400000065000000630000007c
:10103800680000006e0000006f0000006c000000f7
:101048006f00000067000000790000002000000029
:10105800490000006e000000630000002e00000040
:101068001a0300004d000000490000004400000081
:101078004900000020000000450000007800000042
:10108800610000006d000000700000006c000000ae
:101098006500000096870000fc87000000880000bb
:0410a8003488000088
:020000040000fa
:1010ac000200fa00a2c0a90076c6a8000080eb00de
:1010bc00703088000080eb00503088002a26ef004a
:1010cc00220020008000eb00c062200017ff070008
:1010dc0020002000303188002826ef000646a900a9
:1010ec00f009200080308800f00920006030880072
:1010fc0002c6a8000806a80000a020004800de00d8
:10110c00c03088000040eb00004f7800070037002b
:10111c001e80fb00c200dd0000a02000008140000a
:10112c006000b8000089be001e4fe8001e40780029
:10113c00e74f5000f6ff36001426a8001626ef00e5
:10114c0014a6a9001426a9008000200050308800a5
:10115c00a08520008040eb0001487800008620002c
:10116c008040eb0001487800108620009040780009
:10117c00e0c0600001487800208620009040780094
:10118c00e0c06000014878005030800068006000ca
:10119c000000e000ecff3a0010c0b3001be8b70001
:1011ac0010c0b3001ce8b7001d68ef001e68ef000c
:1011bc001568ef000040eb00004f78001500370079
:1011cc001e80fb0080004000c0802000008040009a
:1011dc008000eb00010878001e80fb0080004000be
:1011ec0080802000008040008000eb000108780027
:1011fc001e80fb00518620000041eb0082707800bd
:10120c001e80fb00718620000041eb00827078008c
:10121c001e4fe8001e407800e14f5000e8ff3600fa
:10122c0080a0200060408800d00020005031880051
:10123c00908620001050880000a0200081c0b300d0
:10124c000148780010a0200041c0b300014878008c
:10125c0010a0200010407800804078000174a0009d
:10126c0010a02000014878000268ef002028ef0051
:10127c002228ef002468ef000028ef000080fa001d
:10128c00000006000200fa00004080000000e000b0
:10129c0013003a001426ef000c26ef00200020006b
:1012ac00303188002826ef000646a900f0092000fe
:1012bc0080308800f00920006030880002c6a80049
:1012cc00010037001406a800a03080006100600007
:1012dc000000e000fbff32001000200000408800fe
:1012ec0000408000e10f50000c003a00a13080005b
:1012fc0000042000008060000000e00007003a00bd
:10130c000080eb00503088000c26ef000c06a80083
:10131c000c86a800200020000040880000308000cf
:10132c00700060000000e000070032001030800008
:10133c00700060000000e00003003200000120009b
:10134c000030880099040700403080006200600083
:10135c000000e0000200320092c0a900a200370099
:10136c0050308000610060000000e0000900320095
:10137c0060308000610060000000e0000500320079
:10138c0047ff0700400020000040880010002000ac
:10139c005030880050308000700060000000e00089
:1013ac000500320060308000700060000000e0003a
:1013bc00010032007004070001308000000420009e
:1013cc00008060000000e0000300320000042000f8
:1013dc0000308800cd0607005030800064006000ab
:1013ec000000e000140032006030800064006000f7
:1013fc000000e00004003200120020008000eb002e
:10140c00300720001e0a07004000200050308800e2
:10141c0019c8bf000004e0000300320019c8bf0067
:10142c000040e90019e8b70019c8bf000004e0004b
:10143c0001003a00810107005130800000082000b3
:10144c00008060000000e000060032006130800087
:10145c0000082000008060000000e0000100320065
:10146c002904070050308000620060000000e0009a
:10147c000c00320060308000620060000000e00070
:10148c0008003200120020008000eb00f0ff270063
:10149c00fb0907000080eb00703088002000200062
:1014ac005030880000408000e30f500002003e00e6
:1014bc0092c0a9004c0037006030800068006000ca
:1014cc000000e000470032000040eb00004f7800c5
:1014dc003f00370050308000680060000000e000e2
:1014ec003f003200903080000040780016e8b700d2
:1014fc0016c8bf000080fb004400de0000407800ee
:10150c0017e8b700800020005030880016c8bf00d4
:10151c00684060000004e00012003a0017c8bf00e9
:10152c000081fb0017c8bf008080fb007086200084
:10153c00008040009040780061c060000004a20070
:10154c00e14060007086200000004100e1c06000b6
:10155c00104178000204a10081407100014878001c
:10156c001100370017c8bf000081fb0017c8bf006f
:10157c008080fb0050862000008040009040780066
:10158c0061c060000004a200e140600050862000b1
:10159c0000004100e1c06000104178000204a1008d
:1015ac00814071000148780017c8bf000004e000ba
:1015bc0002003a0009040700040037000001eb00a8
:1015cc006181200020072000ad0907001e4fe800b4
:1015dc001e407800e34f5000beff3600010037007c
:1015ec000000000092c0a9000080fa000000060074
:1015fc000400fa0020479800314798003e409000c4
:10160c000080fb00680060000000e0000300320076
:10161c008040eb002e409000770107003e40900088
:10162c000080fb00640060000000e000030032005a
:10163c0011c0b3002e4090006f010700a162200082
:10164c002e4090000080fb0000004000008f400006
:10165c001e007800be409000014878000080fa001f
:10166c00000006000800fa00204798003147980057
:10167c0022079800634798003e4090000004e00069
:10168c00070032002e4090000080fb0080004000dc
:10169c00c080200000804000100f7800060037004a
:1016ac002e4090000080fb008000400080802000d5
:1016bc0000804000100f78001e0078000000e00051
:1016cc0002003a000000eb0037003700ae0090003b
:1016dc001e007800110098001e007800ee4090006b
:1016ec00014878001e0078001040900002c4b3003e
:1016fc00824060001e007800114098001e007800a7
:10170c0010409000804078000134a0001e0078004a
:10171c00114098001e007800104090008040780026
:10172c000174a0001e007800114098003e4090000b
:10173c000004e0000e0032002e4090000080fb0000
:10174c00ae4090008180fb0001814000c1802000f0
:10175c0081004100910078000120a20000014000ae
:10176c00c080200000004100010878000d00370007
:10177c002e4090000080fb00ae4090008180fb006a
:10178c00018140008180200081004100910078009f
:10179c000120a200000140008080200000004100d8
:1017ac00010878001e0078000080fa000000060096
:1017bc000400fa0020479800314798002e40900012
:1017cc000004e00017003a003040800081c0b300f4
:1017dc00014878003040800091862000110098006c
:1017ec0030408000c1c0b3001140980030408000f0
:1017fc0031408000914090000174a000114098008d
:10180c006040800041c0b3001140980060408000ef
:10181c0061408000914090000174a000114098003c
:10182c002e0037002e4090000080fb00000040008e
:10183c00800078003e4090000080fb00008040005b
:10184c004300dd008000780000a02000008f4000e5
:10185c001e00780010409000804078000124a00009
:10186c001e007800114098001e0078001040900077
:10187c00804078000174a0001e0078001140980090
:10188c002e4090000080fb0000004000800078009b
:10189c003e4090000080fb00008040004300dd00d3
:1018ac00e400400000a02000008f40001e007800e3
:1018bc0010409000804078000124a0001e007800a9
:1018cc00114098001e007800104090008040780075
:1018dc000174a0001e007800114098000080fa00ee
:1018ec00000006000200fa00004f7800a1308000d2
:1018fc0000022000008060000000e0004d0032007b
:10190c001e80fb0080004000c08020000080400052
:10191c00100378001e80fb0080004000c080200077
:10192c0000804000100078001002be00000420006f
:10193c000100200084037800050278008002780002
:10194c0081007800058063008100620081017800cd
:10195c00000178000200be00008bbe001e80fb0060
:10196c0080004000c0802000008040001002780001
:10197c001e80fb0080004000c080200000804000e2
:10198c00100078001001be000004200001002000af
:10199c000000690081806900008abe001e80fb0087
:1019ac009e80fb0001814000c1802000810041002d
:1019bc00910078000120a20000014000c0802000ae
:1019cc0000004100010878001e80fb0080004000f0
:1019dc00c080200000804000900078001e80fb003a
:1019ec0000014000c0802000000041001000780081
:1019fc00104090000044b200904098001e80fb0004
:101a0c0080004000c08020000080400090007800e2
:101a1c001e80fb0000014000c0802000000041003f
:101a2c00100078001041900000c4b3000040690021
:101a3c00904098000080fa00000006000000fa00b8
:101a4c001bc8bf000004a2000004e00034003200f8
:101a5c0010c0b3001be8b7001cc8bf000004a200f4
:101a6c000004e0002e00320010c0b3001ce8b700e8
:101a7c0011c8bf00e24f50000c003a0060408000db
:101a8c008040eb00014878006040800081c4b300c6
:101a9c0011409800604080006140800091409000af
:101aac000174a000114098001d00370011c8bf0040
:101abc00e14f50001a003a001868ef0020408000f7
:101acc0081c0b3000148780020408000918620003e
:101adc00110098002040800041c0b30011409800d4
:101aec002040800021408000914090000174a000b3
:101afc001140980010c0b30018e8b70030408000c7
:101b0c0081c0b300014878003040800091862000ed
:101b1c00110098003040800001c8b30011409800bb
:101b2c000080fa00000006000000fa001d68ef00bb
:101b3c001e68ef0011c8bf00e24f50000f003a00c2
:101b4c003040800081c0b3000148780030408000f4
:101b5c0011872000110098003040800081c4b30030
:101b6c00114098003040800031408000914090003e
:101b7c000174a000114098001d003700f086200071
:101b8c001080fb00018720009180fb00c808dd005d
:101b9c000100700080007800e0428000808f5000cf
:101bac0007003100f08620001080fb000187200028
:101bbc009180fb00c808dd0001007000e042880045
:101bcc0096000700604080001187200011009800eb
:101bdc006040800081c4b3001140980060408000d8
:101bec0061408000914090000174a0001140980069
:101bfc000080fa00000006000400fa00204798005c
:101c0c003147980000a02000000f78002e40900073
:101c1c000080fb0000004000800078003e409000f7
:101c2c000080fb00008040004300dd001e0f4000e0
:101c3c001e0078009000780001f0a10001087800e7
:101c4c003e4090000004e00007003a002e40900057
:101c5c000080fb008000400080802000008040005d
:101c6c001e087800060037002e4090000080fb0014
:101c7c0080004000c0802000008040001e087800da
:101c8c001e0078009000780001e0a10001087800a7
:101c9c009e007800648040009000780001e0a00075
:101cac00010878000080fa00000006000000fa002d
:101cbc0014a6a900d142800000082000008060001a
:101ccc000000e00027003a000086200090407800d9
:101cdc0000c8b30000c060000004e0000a0032003d
:101cec0020c0b30011e8b7001ec8bf000004a2005a
:101cfc000004e000010032008bff07001c68ef00bd
:101d0c001b68ef00430037003040800081c0b300f7
:101d1c000148780030408000918620001100980026
:101d2c0030408000c1c0b3001140980030408000aa
:101d3c0031408000914090000174a0001140980047
:101d4c006040800041c0b3001140980060408000aa
:101d5c0061408000914090000174a00011409800f7
:101d6c002c003700908620009040780000c8b3000b
:101d7c0000c060000004e0000f00320010c0b3008f
:101d8c0011e8b7001dc8bf000004a2000004e00069
:101d9c000100320064ff07001c68ef001b68ef00b5
:101dac001ac8bf000004a2000004e00019003200b1
:101dbc0022ff07001700370020c0b30011e8b7005e
:101dcc003040800081c0b300014878003040800072
:101ddc0091862000110098003040800041c0b30073
:101dec0011409800304080003140800091409000bc
:101dfc000174a000114098001c68ef001b68ef00f4
:101e0c001ac8bf000004a2000004e0000100320068
:101e1c000aff07000080fa00000006000200fa002a
:101e2c0080c0b300004f7800e0428000e70f500004
:101e3c000d003e00e0428000004f780010c8bf004b
:101e4c000004e00003003a0010c0b30010e8b70033
:101e5c000500370010c8bf00e14f500002003a00e7
:101e6c0020c0b30010e8b700e14280001e80fb00e8
:101e7c0000805000e0428800604080001e487800de
:101e8c001087200090408800d042800061006000e4
:101e9c000000e00017003a00090037009140800074
:101eac00c042800010417800824878008100e80030
:101ebc00914088000000e800c04288001e4fe900f5
:101ecc001e4078000004e000f4ff3a000c003700dc
:101edc0091408000c0428000104178008248780018
:101eec008100e800914088000000e800c0428800b2
:101efc001e4fe9001e4078000004e000f4ff3a0099
:101f0c000080fa00000006000200fa002040800069
:101f1c00104f78009e80fb00108620001080fb0084
:101f2c00228620001281fb004811dd0002007000a7
:101f3c00808f500007003600108620001080fb00b8
:101f4c00218620009180fb00c808dd000100700094
:101f5c00004f7800108620001080fb0021862000a6
:101f6c009180fb00c808dd00010070008000780043
:101f7c001e80fb0000805000f10f2000010160006a
:101f8c001186200091417800e0c1610002c171000e
:101f9c0082487800c800de002086200010417800be
:101fac006041610081407100014878000040eb0005
:101fbc00104798001c003700e08520001080fb00c3
:101fcc00f18520009180fb00c808dd000100700045
:101fdc009e4090008180fb0012872000e2c07800b8
:101fec00014878000000e800f10f200001016000ba
:101ffc00e185200091417800e0c1610002c17100cf
:10200c0082487800c800de00f0852000104178007e
:10201c006041610081407100014878001e409000d1
:10202c000040e800104798001e4090009e4f500062
:10203c00e1ff3900108620001080fb002186200073
:10204c009180fb00c808dd00010070000000e0007a
:10205c001e0032003040800081c0b300014878007f
:10206c003040800011872000110098002040800033
:10207c009000780000002400008060000000e00068
:10208c0009003a003040800081c4b3001140980030
:10209c003040800031408000914090000174a000dd
:1020ac00114098002f0037003040800081c0b300f1
:1020bc0011409800304080003140800091409000e9
:1020cc000174a000114098002600370030408000b9
:1020dc0081c0b30001487800304080009186200018
:1020ec00110098003040800041c0b30011409800ae
:1020fc003040800031408000914090000174a0007d
:10210c0011409800308620001080fb004186200092
:10211c009180fb00c808dd00010070000000e000a9
:10212c0007003200308620001080fb004186200022
:10213c009180fb00c808dd00010070000000010068
:10214c0000862000904078000174a10001487800be
:10215c001ac8bf000004a2000004e0000100320015
:10216c0036fe07000080fa00000006000200fa00ac
:10217c00d04280000070a000d042880022002000d5
:10218c008000eb00c0622000e8fa07000202200089
:10219c008000eb0000a02000e4fa07001426a80041
:1021ac000040eb00004f7800090037001e80fb0058
:1021bc00518620000041eb00827078001e80fb00ed
:1021cc00718620000041eb00827078001e4fe80001
:1021dc001e407800e14f5000f4ff36001200200042
:1021ec008000eb0030802000d0fa07001426a900f4
:1021fc0080a020006040880000a0200020408800c3
:10220c002040800030408800b086200010407800cc
:10221c0002e8b70002c8bf000004e00003003a0067
:10222c00000120000040880006003700120020004a
:10223c0021802000100020009106070000022000e1
:10224c00004088000080fa00000006000000fa0040
:10225c00908620009040780000c8b30080cf5000da
:10226c0047003a00a085200001ccb300014878005b
:10227c00c0862000104078000080fb00e20f500068
:10228c0009003200e30f500023003200e10f500030
:10229c0037003a0040782800c04288002001200016
:1022ac00e042880036003700b086200010407800ed
:1022bc000004e00014003a00b086200010407800c2
:1022cc000080fb000000400080007800e0842800c3
:1022dc000080400010007800c0428800c04280009e
:1022ec000080e80090407800c0852000014878000c
:1022fc00c04280006300400090407800d0852000f0
:10230c00014878001e003700a08520008040eb00bb
:10231c00014878001a003700b08620001040780081
:10232c00e24f50000e003e00b086200010407800b6
:10233c000080fb0000004000800078000085280031
:10234c000080400010007800c0428800c04280002d
:10235c00104078000080fb00e04288000800370045
:10236c00a08520008040eb00014878000400370075
:10237c00a08520008040eb000148780000000000a0
:10238c000080fa00000006000200fa00108720000e
:10239c008040eb0001487800208720008040eb0053
:1023ac000148780090862000904078007fc0600043
:1023bc000080fb00e10f500011003200e20f5000d2
:1023cc00130032000000e00040003a00d0428000d0
:1023dc000070a000d042880014c8bf000004e000c8
:1023ec0035003200108720001040780080407800c3
:1023fc000114a0001087200001487800330037003a
:10240c00d04280000070a000d04288002f0037001e
:10241c00d04280000070a000d0428800d0862000fe
:10242c009040780000c8b30000c060000004e000d9
:10243c0009003a00d0862000904078006fc0600000
:10244c000080fb0080004000808020000080400065
:10245c00100f780008003700d086200090407800dc
:10246c006fc060000080fb0080004000c080200036
:10247c0000804000100f78001e007800900078005b
:10248c0000002800008060000000e0000c0032001a
:10249c001e00780090007800004020000080600052
:1024ac000000e000080032001087200011c0b300cb
:1024bc0001487800050037000000000003003700d9
:1024cc00000000000100370000000000d142800035
:1024dc0000082000008060000000e00008003200ce
:1024ec0010872000c0428800d04280000000a0006d
:1024fc00d0428800c085200021c0b300014878007c
:10250c000080fa00000006000000fa005031800044
:10251c00620060000000e0001300320020408000e8
:10252c009040900000c8b30080cf50000d003a00de
:10253c00604080009040900040c8b30080cf5000b5
:10254c0008003a0020408000c1c0b3001140980040
:10255c002040800021408000914090000174a00038
:10256c00114098002a26a90000082000503088004d
:10257c000080fa00000006000000fa000286a800a5
:10258c00000120005030880010c0b30015e8b700df
:10259c002468ef000001eb008000eb0050072000e6
:1025ac00b70507000080fa00000006000000fa00e2
:1025bc001568ef000001eb008000eb0040072000e5
:1025cc00af0507000286a90000012000003088003a
:1025dc002468ef000080fa00000006000000fa00fa
:1025ec00d0c2b30019e8b70016c8bf000080fb00ca
:1025fc000020a1000000e0001f003a0016c8bf0038
:10260c000080fb004200de00004078000080fb00f0
:10261c00c200dd0000a020000080400020408800a7
:10262c002040800030408800304080000020a20014
:10263c0030408800204080009000780000c02300cb
:10264c008080600000402300808f500008003a001a
:10265c002040800010009000820020008000780054
:10266c0090862000aaf907000b000700080037002d
:10267c003d0007000600370016c8bf000080fb00b5
:10268c000020a100e80f500001003a0053000700a1
:10269c000080fa00000006000000fa001068ef004d
:1026ac001a68ef001d68ef001e68ef001868ef0055
:1026bc001168ef0060408000614080009140900004
:1026cc000174a10011409800604080000020a2001d
:1026dc006040880060408000614080009140900024
:1026ec000174a10011409800604080000020a200fd
:1026fc006040880030408000314080009140900064
:10270c000174a10011409800a08520008040eb00ce
:10271c00014878000000eb00e042880000862000b1
:10272c008040eb0001487800108620009040780033
:10273c00e0c06000014878002086200090407800be
:10274c00e0c0600001487800820007000001eb0047
:10275c008000eb00300020004905070053fd070006
:10276c000080fa00000006000000fa0011c8bf004b
:10277c00e24f500002003a00e3fd0700150037005d
:10278c001168ef0018c8bf000004a2000004e000ac
:10279c000f0032003040800081c0b3000148780047
:1027ac00304080009186200011009800304080005d
:1027bc00c1c0b3001140980030408000314080000f
:1027cc00914090000174a000114098000100370066
:1027dc001868ef000080fa00000006000200fa0002
:1027ec0060408000100078004e00de006140600008
:1027fc00004f7800604080000020a20060408800fc
:10280c0000408000e80f50000e003a00b086200017
:10281c00104078008080fb00f007200000806000f2
:10282c00b0308800b03080000000e00003003200bf
:10283c00000120000040880002003700400020000a
:10284c000040880011c8bf00e14f500025003a003d
:10285c006040800011872000110098006ffd070078
:10286c0010c8bf00e24f500009003a0060408000e1
:10287c0041c0b3001140980060408000614080006e
:10288c00914090000174a000114098002f00370077
:10289c001e4078000004e00009003a00604080000f
:1028ac0081c4b300114098006040800061408000fa
:1028bc00914090000174a000114098002300370053
:1028cc006040800081c0b3001140980060408000df
:1028dc0061408000914090000174a000114098006c
:1028ec001a003700008620009040780000c8b30022
:1028fc0000c060000004e0001300320030862000ad
:10290c001080fb00418620009180fb00c808dd0090
:10291c00010070000000e00007003200308620004b
:10292c001080fb00418620009180fb00c808dd0070
:10293c00010070000000010000862000904078002b
:10294c000174a100014878001168ef000080fa00c2
:10295c00000006000000fa0090862000104078006d
:10296c000046b2000004e00051003a00a0862000ae
:10297c00104078000080fb00cf80de00b200200009
:10298c0003002000820f5000838f58004a003e0045
:10299c00006001002100370022003700480037009a
:1029ac002000370046003700060037000b003700c8
:1029bc003a0037000d0037000a0037001b003700c3
:1029cc002a003700d04280000070a000d04288005e
:1029dc0080002000004088003a0037001bfe0700f2
:1029ec0038003700e1fd070036003700208020005a
:1029fc00c0428800d04280000000a000d042880075
:102a0c00c085200011c0b30001487800d04280007e
:102a1c000070a000d04288002a0037005afe070040
:102a2c00280037002900070026003700d086200038
:102a3c00104078008080fb00308020000080400037
:102a4c00c0428800d04280000000a000d042880024
:102a5c00c085200011c0b30001487800d04280002e
:102a6c000070a000d042880016003700d0428000d1
:102a7c000070a000d0428800d08620001040780062
:102a8c000081fb00b0862000904078003080200050
:102a9c0000004100014878000a0037000001eb00fb
:102aac008000eb00200020007504070005003700b3
:102abc000000000003003700000000000100370098
:102acc00000000000080fa00000006000600fa007a
:102adc00b086200010407800e14f500010003a0002
:102aec0090862000104078007f4060000004e000d9
:102afc000b003a00d04280000070a000d042880049
:102b0c00a086200010407800e34f500003003a00ec
:102b1c0010c0b30014e8b700010037001468ef00d0
:102b2c00b0862000104078000004e000f5003a0068
:102b3c0090862000104078007f406000e24f5000eb
:102b4c00f0003a00d0862000104078006f40600002
:102b5c000004e000eb003200d086200090407800aa
:102b6c006fc060000080fb00e10f5000e5003c00ee
:102b7c000140800000022000808f5000e1003a00ec
:102b8c00d04280000070a000d0428800d086200087
:102b9c009040780000c8b30000c060000004e00062
:102bac0010003a00d0862000104178006f40610080
:102bbc000080fb00800040008080200000804000ee
:102bcc00100f7800d0862000904078006fc0600015
:102bdc000080fb007186200061407800404798001f
:102bec000f003700d0862000104178006f40610044
:102bfc000080fb0080004000c0802000008040006e
:102c0c00100f7800d0862000904078006fc06000d4
:102c1c000080fb00518620006140780040479800fe
:102c2c004e409000614060000004e00004003a0057
:102c3c001e0078000020a100000f78000300370070
:102c4c001e0078000020a000000f7800d086200025
:102c5c009040780000c8b30000c060000004e000a1
:102c6c000a003a00d0862000104178006f406100c5
:102c7c000080fb009e007800000140008080200056
:102c8c00000041000108780009003700d0862000c0
:102c9c00904078006fc060000080fb009e007800c0
:102cac0000014000c08020000000410001087800b5
:102cbc00a086200010407800e34f50002c003a0012
:102ccc001e00780090007800000028000080600052
:102cdc000000e00019003200d086200090407800ff
:102cec0000c8b30000c060000004e0000a003a0015
:102cfc00d0862000104178006f4061008080fb007e
:102d0c007086200000804000904078000114a000e4
:102d1c000148780009003700d086200090407800e8
:102d2c006fc060008080fb00508620000080400057
:102d3c00904078000114a000014878001e00780033
:102d4c0010409000804078000124a0001e00780004
:102d5c00114098001e0078001040900080407800d0
:102d6c000174a0001e007800114098006500370027
:102d7c001e0078000020a200000f78001e007800d2
:102d8c009000780000002800008060000000e00047
:102d9c00110032001e007800104090008040780036
:102dac000174a1001e007800114098001e007800ec
:102dbc0010409000804078000164a0001e00780054
:102dcc0011409800220020009e0078005000200046
:102ddc00ab030700060037001e007800104090007f
:102dec00804078000164a0001e007800114098001b
:102dfc001e0078000020a200000f78004e409000ca
:102e0c00624060000004e00006003a001e007800fa
:102e1c009000780000002800008060000000e000b6
:102e2c0024003200d08620009040780000c8b30007
:102e3c0000c060000004e0000a003a00d0862000c8
:102e4c00104178006f4061008080fb00708620008c
:102e5c0000804000904078000114a10001487800e7
:102e6c0009003700d0862000904078006fc06000c9
:102e7c008080fb005086200000804000904078004d
:102e8c000114a100014878001e0078001040900049
:102e9c00b2c3b300824060001e007800114098005d
:102eac00220020009e0078005000200074030700d0
:102ebc00060037001e00780010409000b2c3b3002b
:102ecc00824060001e00780011409800a162200032
:102edc00d0862000104178006f4061000080fb001c
:102eec000000400000804000100798001e00900079
:102efc0010407800804078000114a1001e00900062
:102f0c00014878000080fa00000006000000fa007a
:102f1c00004180001141800061004000e0804800c9
:102f2c00004188001141880015c8bf000004a200b0
:102f3c000004e0000800320024c8bf000040e80094
:102f4c0024e8b70024c8bf000004e00002003a00e7
:102f5c0000c0eb0024e8b7000080fa000000060077
:102f6c000000fa0000418000114180000080fa004e
:102f7c00000006000000fa00a20007000040fe005e
:102f8c005130800000022000008060000000e00052
:102f9c0002003a0010c0b30041000700d200070045
:102fac0010c0b3000080fa00000006000000fa0018
:102fbc0014c8bf000004e0003600320015c8bf0082
:102fcc000004e000330032004030800062006000fa
:102fdc000000e000010032000826a900750007007f
:102fec000004200000308800000000000130800048
:102ffc0000042000008060000000e000fbff3200b5
:10300c000004200000308800000000000130800027
:10301c0000042000008060000000e000fbff320094
:10302c000004200000308800000000000130800007
:10303c0000042000008060000000e000fbff320074
:10304c001446a80000042000003088000000000096
:10305c000130800000042000008060000000e000cf
:10306c00fbff32000004200000308800000000004c
:10307c000130800000042000008060000000e000af
:10308c00fbff32001446a9005700070010c0b30024
:10309c00010037000040eb000080fa000000060041
:1030ac000400fa0020479800403080006100600066
:1030bc000000e0000b003200403080006200600035
:1030cc000000e00007003a0024c8bf00e34f5000a6
:1030dc0004003600203080004300de0061406000b8
:1030ec00320037002e4090000004e0001d0032003a
:1030fc000826a9000806a8002e0007000040eb00d7
:10310c00004f7800090037000004200000308800d0
:10311c0000000000013080000004200000806000ee
:10312c000000e000fbff32001e4fe8001e4078005c
:10313c00e44f5000f4ff36000040eb0010479800bd
:10314c0020308000680060000000e00002003200c7
:10315c0010c0b30010479800230007001e409000d9
:10316c001200370040308000610060000000e00079
:10317c0002003a0000c0eb000c0037004030800029
:10318c00620060000000e00002003a00e0cfb300f3
:10319c000600370024c8bf00e34f500002003e0079
:1031ac00d0cfb30001003700c0cfb3000080fa00cd
:1031bc00000006000000fa005468ef001000fc004c
:1031cc001105800000042000008060000000e00079
:1031dc000200320010c0b30054e8b700a2c0a9002e
:1031ec000080fa00000006000000fa0054c8bf007e
:1031fc000004e00001003200a2c0a8000080fa0028
:10320c00000006000400fa001e00fc001102800001
:10321c00000e2000008060006042880011028000d7
:10322c00000e2000010070001002880080092000b0
:10323c00100798000000eb00000f78000e0037001c
:10324c001e009000900078001e00780000014000e5
:10325c00c08a200000004100010878001e00900088
:10326c008000eb00010878001e0090000080e80050
:10327c00100798001e0fe8001e007800e60f5000a3
:10328c00efff360060308000704288000c26ef00a3
:10329c0010308000804288000226ef0090068000eb
:1032ac004800de00674060000080fb009042880010
:1032bc0000012000003088000002200050308800ff
:1032cc0092c0a9000286a80091068000f08f2f0002
:1032dc000080600000a0a00090068800a2c0a8009a
:1032ec000080fa00000006000400fa0080092000ab
:1032fc00100798000000eb00000f78000b0037005f
:10330c001e00780080004000c08a20000080400031
:10331c00900078001e009000010878001e009000bc
:10332c000080e800100798001e0fe8001e007800cf
:10333c00e60f5000f2ff36007042800060308800cb
:10334c00804280001030880090428000004078005d
:10335c00674060000080fb00670060004800dd00f3
:10336c0092068000f18f2f00810061000100700037
:10337c009006880011028000f0f12f008080600020
:10338c006042800001007000604288006042800052
:10339c00100288000080fa00000006000000fa000d
:1033ac003e28ef004068ef00d1c1b30010c0b3005d
:1033bc008ff80700408420001000900003c4b30075
:1033cc00000178008040eb0010c0b300a5f80700a6
:1033dc00f04188002d0007000080fa000000060074
:1033ec000000fa0040c8bf000004e00003003200f7
:1033fc0040c8bf000040e90040e8b7000080fa0078
:10340c00000006000000fa0000408000ff0f500092
:10341c001900360040308000620060000000e000bf
:10342c0017003a00f04180000000e0000600320076
:10343c00f0418000900078000000280000806000bf
:10344c000000e0000f003a002300070074000700a2
:10345c00bc000700408420001000900003c4b3009f
:10346c00000178008040eb0010c0b3007df807002d
:10347c00f041880003003700000000000100370015
:10348c00000000000080fa00000006000000fa00b6
:10349c0000042000dbf50700800078004084200049
:1034ac00110098004084200090009000408420007f
:1034bc00210098004084200090009000408420005f
:1034cc00310098004084200001c1b300014878000d
:1034dc000080fa00000006000400fa00408420007e
:1034ec00a00090004084200030009000808f50009d
:1034fc002e0032000040eb00004f78001d0037001a
:10350c0040842000200090001000be00e00f50000e
:10351c00e08f58000c003a0040842000a00090007e
:10352c0040842000104078000081fb001e00fb004e
:10353c00000051004200dd008080400040842000eb
:10354c00210098001100370040842000a00090005a
:10355c00110798001e009000160007004084200000
:10356c0020009000e40040004084200021009800de
:10357c001e4fe8009e00fb004084200010407800a5
:10358c000080fb00808f5000ddff35004084200060
:10359c00900090004084200021009800408420007e
:1035ac009000900040842000310098000080fa00c8
:1035bc00000006000200fa00000f78001e007800e0
:1035cc00100078004400de006f4060000080fb00bb
:1035dc00e90f500005003200eb0f50000d003200d7
:1035ec00e80f5000070032000b0037001e00780077
:1035fc00b04090001e007800204090001900070099
:10360c00050037001e0078002040900029000700bc
:10361c0001003700000000000080fa0000000600e6
:10362c000000fa00080007008000780040842000a9
:10363c0030009000010178008000eb00bbf5070022
:10364c000080fa00000006000000fa004084200010
:10365c00104078000080fb004200dd000080fa0082
:10366c00000006000800fa006047980071479800b7
:10367c004000200063f50700000f78001042800026
:10368c00ee409000214798007e4190003247980010
:10369c00200798001e0078001e019000ae019000db
:1036ac000288be009e017800134288000080fa0058
:1036bc00000006000600fa00404798000000eb00ee
:1036cc00000f780011428000110798001800370095
:1036dc001e009000904078004e40900080cf50002b
:1036ec000e003a001e0078000000e00004003a00d2
:1036fc001e0090001000900010428800040037005b
:10370c001e009000900090001e00780011009800a0
:10371c001e00900020f50700080037009e00900066
:10372c00010f78001e009000900090001107980087
:10373c001e0090000000e000e5ff3a000080fa0057
:10374c00000006000000fa00104280000000e000bb
:10375c00020032006646a8000400370010428000c8
:10376c000000e00001003a006646a9000080fa0063
:10377c00000006000000fa0060822000a1892000f1
:10378c001100980060822000a189200001087800b7
:10379c0060822000a00090000110a0002100980081
:1037ac0060822000a00090000100a1002100980080
:1037bc00608220008040eb0061409800d004200023
:1037cc00c024880000002800d02488009e24ef002c
:1037dc008a20a9009a20a8000080fa0000000600a8
:1037ec000200fa0060822000e0409000014f780057
:1037fc001e4078000080fa00000006000000fa006d
:10380c0090418000660040009041880030c8bf00a5
:10381c000040e90030e8b70030c8bf000004e00009
:10382c0003003a004000200070418800020037007d
:10383c0010002000704188000080fa000000060093
:10384c000200fa00000f78009a44a800a041800002
:10385c00200090000000e00003003200a041800036
:10386c00200090001e0878002e28ef000080fa003f
:10387c00000006000800fa00000f780021479800ad
:10388c0022079800330798006082200020009000e7
:10389c00610060000000e0000a003a00ae019000f8
:1038ac002e4190009e007800608a2000770007006f
:1038bc003e019000618a200010c0b3001f00070079
:1038cc00030037003e0090008000eb0001087800f8
:1038dc000080fa00000006000800fa00000f7800d3
:1038ec002147980022079800330798006082200037
:1038fc0020009000610060000000e0000a003a0027
:10390c00ae0190002e4190009e007800008a2000ad
:10391c00460007003e019000018a200010c0b30051
:10392c0006000700030037003e0090008000eb000b
:10393c00010878000080fa00000006000600fa007a
:10394c00004f780011079800220798006082200031
:10395c0020009000610060000000e0002e003a00a2
:10396c002e009000110020000108780060822000d9
:10397c00100078009e0090001100980060822000da
:10398c00100078001e48780060822000100078003b
:10399c00ae0090002100980060822000100078009a
:1039ac00e600400060822000010878006082200060
:1039bc0090007800008a2000808f500003003a00ad
:1039cc0060822000a189200001087800608220001c
:1039dc00a00090000110a10021009800608220003e
:1039ec00900090006082200010007800808f5000c2
:1039fc0004003a0060822000a00090000100a000aa
:103a0c0021009800704180000000e00005003a00a1
:103a1c008a20a800030037002e0090008000eb00e5
:103a2c00010878000080fa00000006000800fa0087
:103a3c00000f780011079800424798003307980050
:103a4c003e00900000004000800078001e007800ce
:103a5c00010878001e0078001000780080007800c3
:103a6c000100a0001e007800010878001e007800fc
:103a7c00ce409000214098001e0078009e009000df
:103a8c00210098000080fa00000006000800fa00ef
:103a9c00000f7800110798004247980033079800f0
:103aac003e00900000004000800078001e0078006e
:103abc00010878001e007800ce409000214098004c
:103acc001e0078009e009000210098000080fa00f3
:103adc00000006000000fa00608220002000900028
:103aec006200600000f0a7000000ea000000ea009d
:103afc004f00de00004078000080fa000000060055
:103b0c000000fa006082200020009000610060003c
:103b1c0000f0a7000000ea000000ea004f00de0001
:0c3b2c00004078000080fa000000060055
:020000040000fa
:103b3800ac0800000e000000800000004c080000e7
:103b48000a00000080000000580800002200000061
:103b5800800000000008000026000000800000002f
:103b6800000a000020000000800000007a08000021
:103b7800200000008000000056080000020000003d
:103b880082000000ffff00009a08000012000000f9
:103b980080000000260800001800000080000000d7
:103ba8003e0800000e00000080000000be08000073
:103bb8000200000080000000ba08000004000000b5
:103bc80080000000c0080000020000008000000023
:103bd800c208000002000000800000000000000091
:020000040000fa
:103be8000000fa0000102300100888000621ef00ea
:103bf8006821ef006a21ef000c21ef000e21ef0091
:103c08007821ef007c21ef007e21ef008021ef007a
:103c18008421ef008621ef00120020008007200099
:103c2800a1092000131020008049780081497800fc
:103c380082497800120020006004200071052000ed
:103c48000310200080497800814978008249780073
:103c58000000000000088000610060000000e00033
:103c6800fcff3a000000000001088000000220006c
:103c7800008060000000e000fbff32000080fa00d6
:103c8800000006000600fa00000f780011079800ef
:103c9800220798001e00780021072000810f50009d
:103ca8000a00320021072000810f5000090034006b
:103cb80041072000810f5000080032004107200012
:103cc800810f500007003500070037000000000092
:103cd8000500370000000000030037000000000066
:103ce800010037000000000010c0b3000080fa0097
:103cf800000006000200fa0010002000000f780003
:103d080045000700e7f40700a5fd07007a46a9006b
:103d18005df5070000408000ff0f500004003600ea
:103d280040308000620060000000e00005003200c2
:103d380020002000000f78007a46a900000000004b
:103d4800f3ff37007a46a8000000eb00000f780068
:103d5800adfd0700eeff37000000fa006626ef0011
:103d68007a26ef003001200010338800b0ff2c00c5
:103d7800b03388007426ef008826ef007226ef0023
:103d88008626ef007426ef008826ef007226ef00e3
:103d98008626ef006826ef007c26ef003000200022
:103da8005033880080012800f03388000080fa0032
:103db800000006000000fa0081058000f0f82f00de
:103dc800008060000040a000800588008105800018
:103dd80080ff2f00008060000000a00080058800a0
:103de8000080fa00000006000200fa00000f7800c8
:103df8009e007800b1428800ffff37000000fa00fb
:103e0800a087200080077800208920000001880012
:103e18000080fa00000006000000fa00ceff07004c
:103e28006fff0700e3ff07009ef4070052fe07003c
:103e38005bfd07000080fa00000006000000fa00a1
:083e48000080fa0000000600f2
:020000040000fa
:04ae0000ffffff0051
:020000040000fa
:04ae2000ffffff0031
:020000040000fa
:04ae300008ffff0018
:020000040000fa
:04ae380063ffff00b5
:020000040000fa
:04ae40009fffff0071
:020000040000fa
:04ae4800ffffff0009
:020000040000fa
:04ae5000dfffff0021
:020000040000fa
:04ae58000000ff00f7
:020000040000fa
:04ae60000000ff00ef
:020000040000fa
:04ae68000000ff00e7
:020000040000fa
:04ae70000000ff00df
:020000040000fa
:04ae7800ffffff00d9
:020000040000fa
:04ae8000ffffff00d1
:00000001FF
